:020000020000FC
:0200000002C03C
:1000040078C00FE50DBF08E00EBF00E00ABB0FEF9C
:100014000BBB0FEF07BB00E008BB0FEF04BB00E016
:1000240005BB0BE101BB00E002BB28D08ED03DD064
:100034005BD0789428D0302F373228F0373538F019
:10004400313848F00CC0C59AC69AC79A0BC0C59AF5
:10005400C69AC79807C0C59AC698C79803C0C598DA
:10006400C698C7983B1711F0B32FCED014D0202FC9
:1000740021D02A1711F0A22F95D0DCCF00E607B9C2
:1000840007E806B9089507B1007E07B9369A36998C
:10009400FECF05B1089507B1007E016007B9369A15
:1000A4003699FECF05B1000F08950AE603BF002775
:1000B4000CBF0895022F093140F00E3158F003327D
:1000C40058F0083258F04FEF0BC040E04CBFC098D6
:1000D400C198089540E404C040E802C040EC00C068
:1000E4004CBFC09AC198089502E005BF00E40BBF5D
:1000F40008958F939F93EF93FF93939A01E034D0E5
:1001040000E832D003E446D002E544D009E442D00A
:1001140004E540D009E43ED003E43CD001E43AD005
:100124000CE438D000E236D001E434D00CE432D010
:1001340005E430D002E52ED004E52CD001E22AD02B
:10014400FF91EF919F918F911895889A8C9A899A33
:100154000FEF04BB9CD008E315D00CE013D001E0F2
:1001640003D006E00FD0089505BB90989498919A17
:100174007AD09198013021F0023011F078D00895AE
:100184007ED0089505BB90989498919A6CD09198DC
:100194006ED0089505BB909A9498919A64D09198E2
:1001A40066D0089500ECE0DFC0990FC006E4F2DFEA
:1001B40001E4F0DF0EE4EEDF0AE3ECDF0FE4EADF54
:1001C40006E4E8DF06E4E6DF0EC006E4E3DF01E46C
:1001D400E1DF0EE4DFDF0AE3DDDF0FE4DBDF0EE463
:1001E400D9DF00E2D7DF00E2D5DF04E5D3DF05E69F
:1001F400D1DF0DE6CFDF00E7CDDF0AE3CBDF022F4F
:1002040028D003E4C7DF089500E8AEDF0CE4C2DFC2
:1002140004E4C0DF02E5BEDF0AE3BCDF00E2BADFCC
:10022400032F3DD005E2B6DF00E2B4DF00E2B2DF27
:1002340000E2B0DF08958F93772788E0550F771F8A
:10024400761710F0761B51608A95C1F7672F8F914E
:100254000895502F6AE0EFDF5063052F9BDF606342
:10026400062F98DF089500000000000008958F9382
:100274008CE30E9435018A95E1F78F9108958F935D
:1002840084E10E9439018A95E1F78F9108958F9353
:100294008AE00E9441018A95E1F78F9108950A3A14
:1002A40008F00AEA502F67E9569F012D023008F042
:1002B40001C000E001D00895502F64E6BCDF506314
:1002C400052F68DF062F502F6AE0B5DF5063052F36
:0A02D40061DF6063062F5EDF08950E
:00000001FF
